:100000000C94F1030C9438040C9438040C943804C8
:100010000C9438040C9438040C9438040C94380470
:100020000C9438040C9438040C94321E0C94051F64
:100030000C949D150C9438040C9438040C943804DA
:100040000C9438040C9438040C9438040C94380440
:100050000C9438040C9405160C9438040C94380451
:100060000C9438040C9438040C9438040C94380420
:100070000C9438040C9438040C9438040C94380410
:100080000C9438040C9438040C9438040C94380400
:100090000C9438040C9438040C9438040C943804F0
:1000A0000C9438040C9438040C943804012B022B63
:1000B00074E8012002200014001A0008001500173F
:1000C0000000001C0018000C0012001300040016B1
:1000D00000070009000A0000000B000D000E000FD1
:1000E0000033001D001B000600190005000151111E
:1000F00000100036003700380035002E00E2002ADC
:10010000002C62296128682B42E6002D0034001E75
:10011000001F0020002100220000002300240025F1
:1001200000260027002E002D0034002F0030000094
:10013000005000510052004F000100010031003515
:10014000002F023002010001000100010001000146
:100150000001000100010001000100010001000197
:10016000000100010001001E021F022002210222E4
:100170000200002302240225022602270204510164
:100180000001000100010000000100010001000168
:100190000001000100010001000100010001000157
:1001A0000001000100010001000030010001000118
:1001B0000001000100010001000100010001000137
:1001C0000001000100010001000000010001000128
:1001D0000001000100010001000100010001000018
:1001E000005000510052004F0001000100010001C9
:1001F00000010001000100010001000100010001F7
:1002000000010001000100010001000100010001E6
:1002100000010001000100010001000100010000D7
:100220007000000100010001000100010001000157
:1002300000010001000100000001000100010001B7
:1002400000010001000100010001000100010001A6
:100250000001000100010001000100010001000196
:100260000001000100010001000100010001000186
:100270000001000100010001000000010001000177
:100280000001000100010001000100010001000067
:100290000001000100010001000100010001000156
:1002A0000001000100010001000100010001000146
:1002B0000001000100010001000100010001000136
:1002C0000001000100010001000100010001000126
:1002D0000000000100010001000100010001000117
:1002E0000001000100010000000100010001000107
:1002F00000010001000100010001000100010001F6
:1003000000010001000100010001000100010001E5
:1003100000010001000100010001000100010001D5
:1003200000010001000100010000000100010001C6
:1003300000010001000100010001000100010000B6
:1003400000010001000100010001000100010001A5
:100350000001000100010001000100010001000195
:100360000001000100010001000100010001000185
:100370000001000100010001000100010001000175
:100380000000000100010001000100010001000166
:100390000001000100010000000100010001000156
:1003A0000001000100010001000100010001000145
:1003B0000001000100010001000100010001000135
:1003C0000001000100010001000100010001000125
:1003D0000001000100010001000000010001000116
:1003E0000001000100010001000100010001000006
:1003F00000010001000100010001000100010001F5
:1004000000010001000100010001000100010001E4
:1004100000010001000100010001000100010001D4
:1004200000010001000100010001000100010001C4
:1004300000000001000100010001000100010001B5
:1004400000010001000100000001000100010001A5
:100450000001000100010001000100010001000194
:100460000001000100010001000100010001000184
:100470000001000100010001000100010001000174
:100480000001000100010001000000010001000165
:100490000001000100010001000100010001000055
:1004A0000001000100010001000100010001000144
:1004B0000001000100010001000100010001000134
:1004C0000001000100010001000100010001000124
:1004D0000001000100010001000100010001000114
:1004E0000000000100010001000100010001000105
:1004F00000010001000100000001000100010001F5
:1005000000010001000100010001000100010001E3
:1005100000010001000100010001000100010001D3
:1005200000010001000100010001000100010001C3
:1005300000010001000100010000000100010001B4
:1005400000010001000100010001000100010000A4
:100550000001000100010001000100010001000193
:100560000001000100010001000100010001000183
:100570000001000100010001000100010001000173
:100580000001000100010001000100010001000163
:100590000000000100010001000100010001000154
:1005A0000001000100010000000100010001000144
:1005B0000001000100010001000100010001000133
:1005C0000001000100010001000100010001000123
:1005D0000001000100010001000100010001000113
:1005E0000001000100010001000000010001000104
:1005F00000010001000100010001000100010000F4
:1006000000010001000100010001000100010001E2
:1006100000010001000100010001000100010001D2
:1006200000010001000100010001000100010001C2
:100630000001000100010012036B006500790062F7
:10064000006F006100720064000000160371006D0D
:10065000006B006200750069006C00640065007248
:100660000000000403090409026D00040100A0FA5F
:100670000904000001030101000921110100012208
:1006800040000705810308000A0904010001030175
:100690000200092111010001224D00070582030813
:1006A000000A0904020001030000000921110100F1
:1006B000012236000705830308000A09040300012C
:1006C00003000000092111010001223900070584FF
:1006D000032000011201100100000008EDFE60601F
:1006E00001000102000105010906A101050719E049
:1006F00029E71500250195087501810205081901F2
:10070000290595057501910295017503910105076C
:10071000190029F71500250195F875018102C0051A
:10072000010980A10185021601002603001A81003B
:100730002A8300751095018100C0050C0901A101F3
:100740008503160100269C021A01002A9C027510DE
:1007500095018100C005010902A1010901A100055F
:1007600009190129051500250195057501810295D5
:1007700001750381010501093009311581257F9536
:10078000027508810609381581257F950175088154
:1007900006050C0A38021581257F9501750881062A
:1007A000C0C005010906A101050719E029E71500E8
:1007B00025019508750181029501750881010508DB
:1007C000190129059505750191029501750391019E
:1007D0000507190029FF150026FF009506750881F9
:1007E00000C011241FBECFEFDAE0DEBFCDBF04B6DC
:1007F00003FE27C080912E0290912F02A09130021B
:10080000B09131028730904BA740B04BD1F4109299
:100810002E0210922F02109230021092310214BE5A
:1008200084B7877F84BF0FB6F894A8958091600045
:10083000886180936000109260000FBEE0E0FFE3EB
:10084000099511E0A0E0B1E0E2E9F4E402C005900E
:100850000D92A633B107D9F722E0A6E3B1E001C0BB
:100860001D92AE32B207E1F70E94811B0C94472221
:100870000C940000611107C0FC018281882319F0EB
:100880008CEA90E0089590E080E00895089508953E
:1008900081E00895089581E008950C9448040E9431
:1008A000160E2FEF84E39CE0215080409040E1F74A
:1008B00000C000000C942A16FF920F931F93CF9351
:1008C000DF938C01FC01C081D18180916A0181118B
:1008D0003FC082818823B9F1CE010E947D13F82E9A
:1008E000682FCE010E942313BE018F2D0E94A30505
:1008F000EC01B8010E944D04882309F44AC0B801F4
:10090000CE010E94B307882309F443C0C531F0E744
:10091000DF0718F5C23080E7D80708F04BC0C115D3
:10092000E0E7DE0789F1C130D047D1F181E0809363
:10093000380180933901C801DF91CF911F910F9148
:10094000FF900C944B04CE010E945213F82ECCCF92
:10095000CE010E947D13BE01C9CFCC3380E7D807FA
:1009600009F4ACC0CD33D04709F7F8018281882360
:1009700009F4CBC0109239010E94CF159093370132
:100980008093360180E2A7C0F801828181110E9424
:100990004F0480E0DF91CF911F910F91FF90089558
:1009A000F80182818823A9F38091EE018160809310
:1009B000EE01EFCFF8018281882309F4BCCF0E94B9
:1009C0002E15811102C00E9414150E944B1590E053
:1009D0009093200280931F02FE01E350F047809124
:1009E0001F028160E231F105C8F4E750FB4F0C941F
:1009F000F7210B0517051B051F05230527052B05EB
:100A00002F05330537053B053F05430547054B05D6
:100A10004F055305570580911F02826080931F0286
:100A200080911F020E944F150E94160EB2CF809136
:100A30001F028460F3CF80911F028860EFCF809106
:100A40001F028061EBCF80911F028062E7CF80910F
:100A50001F028064E3CF80911F028068DFCF809106
:100A60001F028460EACF80911F028E7FD7CF8091D2
:100A70001F028D7FD3CF80911F028B7FCFCF8091BC
:100A80001F02877FCBCF80911F028F7EC7CF8091BF
:100A90001F028F7DC3CF80911F028F7BBFCF8091BC
:100AA0001F028F77BBCF80911F028B7FEACF90917F
:100AB0001F02892F97FB87F98058B0CFF8018281F8
:100AC000882361F0109238010E94CF15909337016E
:100AD0008093360182E00E94A00B5BCF80913801A9
:100AE00081110FC080913601909137010E94DB1572
:100AF000883C910530F486E20E94750A86E20E94E5
:100B0000510B82E00E94A70B44CF809139018111E3
:100B10000FC080913601909137010E94DB15883C0F
:100B2000910530F487E20E94750A87E20E94510B1A
:100B300080E2E8CF0C9402080C9404080C944A0458
:100B40000C949E050895972F70E02BE0929F600D06
:100B5000711D1124FB019CE2899FE00DF11D112400
:100B6000EE0FFF1FE954FF4F859194910895FC010A
:100B7000EE0FFF1FE95CF94F8591949108950E9453
:100B8000A3050E943207811520E4920708F08DC06A
:100B9000811540E3940708F0E8C0803E910508F015
:100BA00071C0803C910508F0CCC0883A910580F472
:100BB000853A910508F0CAC08130910509F46EC0EC
:100BC00020F08430910508F069C090E080E008953D
:100BD0008D3B9105D0F7883A910509F404C1893A13
:100BE000910509F403C18A3A910509F402C18B3ACF
:100BF000910509F401C18C3A910509F400C18B3BC0
:100C0000910509F4FFC08C3B910509F4FEC08D3AB3
:100C1000910509F4FDC0803B910509F4FCC08E3AB2
:100C2000910509F4FBC08F3A910509F4FAC0813BA4
:100C3000910509F4F9C0823B910509F4F8C0833BA2
:100C4000910509F4F7C0843B910509F4F6C0853B92
:100C5000910509F4F5C0863B910509F4F4C0873B82
:100C6000910509F4F3C0883B910509F4F2C0893B72
:100C7000910509F4F1C08A3B910509F4F0C080E0C8
:100C800094E408958F3F910509F048F4803F910561
:100C900008F067C0883E910508F097CF0895811548
:100CA00020E2920708F05FC00895811543E594079C
:100CB00060F5811522E5920708F062C0811541E5D3
:100CC000940708F058C0811520E5920708F450C039
:100CD0009C0154E0369527955A95E1F7922F937031
:100CE000482F437021E030E002C0220F331F4A95A5
:100CF000E2F73C68392B86958695837040E2849FA5
:100D0000C0011124822B932B0895811545E594078A
:100D100050F4811524E5920708F446C0982F8827DF
:100D2000846F906A0895811546E5940708F450C0D1
:100D30009C0130569F702115304108F046CF9062DB
:100D40000895805C91090E94B7050895853A910540
:100D500009F443C0863A910509F042C082E890E464
:100D60000895906508959F70EECF9927906C08952F
:100D70009F70906A0895982F8827816F906A0895D0
:100D8000AC014370552721E030E002C0220F331F31
:100D90004A95E2F78695869540E2849FC00111242A
:100DA000822B932B9C680895AC014370552721E05A
:100DB00030E002C0220F331F4A95E2F786958695F0
:100DC00040E2849FC0011124822B932B9A680895DE
:100DD000982F882788279F71B2CF81E890E40895E3
:100DE00083E890E4089582EE94E4089589EE94E413
:100DF00008958AEE94E4089585EB94E4089586EBD3
:100E000094E4089583EB94E4089584EB94E40895C6
:100E100087EB94E408958CEC94E408958DEC94E4CD
:100E2000089583E895E408958AE895E4089582E9B1
:100E300095E4089584E995E4089581E296E408959F
:100E400083E296E4089584E296E4089585E296E4C8
:100E5000089586E296E4089587E296E408958AE28A
:100E600096E41CCF8238910549F1B0F481339105A5
:100E700009F45CC048F48932910509F452C08A3201
:100E8000910509F458C008958533910509F444C0CB
:100E90008933910599F00895833E910531F138F435
:100EA000803E910591F0823E9105B1F00895863E15
:100EB000910511F1873E910541F1089520911F029E
:100EC0002370C9F080EE90E0089520911F0220FF6A
:100ED00012C089E390E0089520911F0222FF0BC009
:100EE00024FF2EC090E080E0089520911F0222FD93
:100EF0002AC024FDF7CF089520911F0223FFFBCFC6
:100F000024FDF0CF87EE90E0089520911F0223FF8B
:100F1000F0CF86EE90E0089520911F0225FD16C0C7
:100F2000089520911F0225FD14C0089520911F02ED
:100F300026FD12C0089520911F0226FD10C00895BD
:100F400083EE90E0089582EE90E0089589E290E0CB
:100F5000089585E390E008958AE290E0089581E3A2
:100F600090E0C9CF08950F931F93CF938C01FB019D
:100F70008281811106C0C1E08C2FCF911F910F910A
:100F80000895C0914701C11125C00531104799F757
:100F90000E94B20781E0809347010E94CF15909391
:100FA00046018093450110923A0110923C01109243
:100FB0003B0110923E0110923D01109240011092AF
:100FC0003F0110924201109241011092440110928F
:100FD0004301D2CF80914501909146010E94DB15DB
:100FE000883C910540F680913A01E82FF0E0EE0F41
:100FF000FF1FE55CFE4F118300838F5F80933A01F2
:10100000C0E0BACF0C9446040C944704CF93DF930E
:1010100085B7806885BF85B7806885BFAEE1B1E0E0
:1010200042E251E0C1E0D0E08D91E82FE295EF700F
:10103000F0E061A18F709E0101C0220F8A95EAF74E
:10104000922F9095962391A382A1822B82A34A1777
:101050005B0751F7A3E1B1E04EE151E0C1E0D0E020
:101060008D91E82FE295EF70F0E061A18F709E0105
:1010700001C0220F8A95EAF7922F9095962391A3AB
:1010800082A1822B82A34A175B0751F7109251016C
:101090001092500110924901109248011092530190
:1010A0001092520110924B0110924A011092550178
:1010B0001092540110924D0110924C011092570160
:1010C0001092560110924F0110924E01DF91CF9174
:1010D0000C949A054F925F927F928F929F92AF925B
:1010E000BF92CF92DF92EF92FF920F931F93CF9315
:1010F000DF93C8E4D1E00EE111E092E2A92E91E085
:10110000B92EEE24E394F12C99249394C880D980CD
:1011100019821882D8018D918D01E82FE295EF7028
:10112000F0E091A18F70970101C0220F8A95EAF734
:10113000892F822B81A382A1822E8094882182A371
:10114000B0EABA95F1F783E1482E81E0582E90E09D
:1011500080E0D2017D912D01472F42954F7050E0E4
:10116000DA0190967C90488159817F70D70102C046
:10117000AA0FBB1F7A95E2F7BD01672109F068C08D
:10118000B701082E02C0660F771F0A94E2F7462BBC
:10119000572B5983488301968B309105D1F681A155
:1011A000882281A282A1282B22A388819981C81636
:1011B000D90641F0909258010E94CF1590935A01A0
:1011C000809359012296A016B10609F09FCF809115
:1011D0005801882351F18091590190915A010E9440
:1011E000DB15069710F18091480190914901909389
:1011F00051018093500180914A0190914B0190934D
:1012000053018093520180914C0190914D01909334
:1012100055018093540180914E0190914F0190931C
:10122000570180935601109258010E949C0581E05D
:10123000DF91CF911F910F91FF90EF90DF90CF90B2
:10124000BF90AF909F908F907F905F904F90089548
:1012500070E060E09CCFE82FF0E0EE0FFF1FE05B56
:10126000FE4F80819181089508959093600180934D
:101270005F010895E0915F01F0916001309721F0E6
:101280000190F081E02D099480E00895E0915F01E4
:10129000F0916001309721F00280F381E02D0994F4
:1012A0000895E0915F01F0916001309721F0048092
:1012B000F581E02D0994089520915D0130915E0142
:1012C0002817390771F090935E0180935D01E091DA
:1012D0005F01F0916001309721F00680F781E02DE9
:1012E0000994089520915B0130915C01281739071A
:1012F00071F090935C0180935B01E0915F01F0914C
:101300006001309721F00084F185E02D0994089563
:1013100008950C9488090E94C6150E9406080C9432
:1013200097165F926F927F928F929F92AF92BF9229
:10133000CF92DF92EF92FF920F931F93CF93DF93A1
:10134000CDB7DEB72A970FB6F894DEBF0FBECDBF7C
:101350000E946A0892E6A92E91E0B92E10E000E002
:1013600088248394912C502E802F0E942B097C017D
:10137000F501C190D1905F01C816D90609F45EC08D
:101380008091EE0181FD0E94340990E080E0CE243E
:10139000DF243401082E02C0660C771C0A94E2F7A1
:1013A000960126213721232B09F443C08E835F82C7
:1013B000E620F72081E0EF2809F480E088870E948A
:1013C000CF158160782F9A8789874E815F816885E4
:1013D0008A850E944B0A000F111FF801EE59FE4F3B
:1013E0008081918168267926718260820E941B1912
:1013F0000E943A09909161018917B9F10E943A0956
:10140000809361012A960FB6F894DEBF0FBECDBF60
:10141000DF91CF911F910F91FF90EF90DF90CF90D0
:10142000BF90AF909F908F907F906F905F900C9443
:10143000A00501968B30910509F0ABCF0F5F1F4FD0
:101440000430110509F08FCF8FEF89838A831B82C7
:101450000E94CF158160782F9D838C8349815A81AA
:101460006B818D810E944B0AC1CF2A960FB6F894EA
:10147000DEBF0FBECDBFDF91CF911F910F91FF90C7
:10148000EF90DF90CF90BF90AF909F908F907F9024
:101490006F905F900895CF93DF93CDB7DEB72B9712
:1014A0000FB6F894DEBF0FBECDBF4F835887698754
:1014B0007A878B871E821D8285E0FE013796DE01CA
:1014C000119601900D928A95E1F749815A816B81BD
:1014D0007C818D819E812B960FB6F894DEBF0FBE66
:1014E000CDBFDF91CF910C94C810882309F4D8C0E8
:1014F000823871F40E943A0981FDD2C089E30E94CA
:101500001D140E94E51489E30E945A140C94E514FA
:10151000833859F40E943A0980FDC2C083E50E94D5
:101520001D140E94E51483E5EFCF843859F40E941E
:101530003A0982FDB5C087E40E941D140E94E5149B
:1015400087E4E2CF9CEF980F913A18F40E941D14A3
:10155000DDCF90E2980F983050F4877091E001C091
:10156000990F8A95EAF7892F0E949C14CFCF9BE5AB
:10157000980F933070F4853A31F0863A39F083E869
:1015800090E00C945C0981E890E0FBCF82E890E069
:10159000F8CF98E5980F953108F082C0883A09F4A1
:1015A00040C0893A09F440C08A3A09F440C08B3AF5
:1015B00009F440C08C3A09F440C08B3B09F440C0A8
:1015C0008C3B09F440C08D3A09F440C0803B09F4DB
:1015D00040C08E3A09F440C08F3A09F440C0813BC4
:1015E00009F440C0823B09F440C0833B09F440C089
:1015F000843B09F440C0853B09F440C0863B09F4B4
:1016000040C0873B09F440C0883B09F440C0893B97
:1016100009F440C08A3B09F440C090E080E00C949B
:10162000720982EE90E0FBCF89EE90E0F8CF8AEE6F
:1016300090E0F5CF85EB90E0F2CF86EB90E0EFCF36
:1016400083EB90E0ECCF84EB90E0E9CF87EB90E088
:10165000E6CF8CEC90E0E3CF8DEC90E0E0CF83E838
:1016600091E0DDCF8AE891E0DACF82E991E0D7CF4F
:1016700084E991E0D4CF81E292E0D1CF83E292E09D
:10168000CECF84E292E0CBCF85E292E0C8CF86E273
:1016900092E0C5CF87E292E0C2CF8AE292E0BFCF6C
:1016A0000895882309F44BC0823871F40E943A09E6
:1016B00081FF45C089E30E941D140E94E51489E35F
:1016C0000E945A140C94E514833859F40E943A0984
:1016D00080FF35C083E50E941D140E94E51483E558
:1016E000EFCF843859F40E943A0982FF28C087E47A
:1016F0000E941D140E94E51487E4E2CF9CEF980F2E
:10170000913AF0F290E2980F983050F4877091E09F
:1017100001C0990F8A95EAF7892F0E94A214D2CFAF
:101720009BE5980F933020F490E080E00C945C09E6
:10173000885A853120F490E080E00C947209089575
:10174000882321F00E949C140C94E51408958823AA
:1017500021F00E94A2140C94E51408958F929F9298
:10176000AF92BF92DF92EF92FF920F931F93CF93AE
:10177000DF937C01D62FC72FFC01058102950F70E6
:10178000128111110E94BB140E941614D82E8823B6
:1017900071F0112321F180E28D0F883000F182E099
:1017A0000E9400140E94161491E0D82ED926EC2F26
:1017B000E295EF70F0E0E152F44F0C94F721F10B59
:1017C000F10B410C410C830C9F0C1E0C1E0CAA0C3F
:1017D0001E0C420D420DB50D1E0C1E0CBE0DD12C63
:1017E000E6CF0C2F0F70C07F11F00295007F112300
:1017F000A9F0002359F080E28D0F883010F0D1114C
:1018000009C0802F0E949C140E94E5148D2F0E9415
:10181000750A14C0802F0E94AD14F6CF8D2F0E9440
:10182000510B002359F080E28D0F883010F0D11158
:1018300024C0802F0E94A2140E94E514DD2009F428
:10184000A4C10E94F31380FDA0C1F70112820E947F
:10185000ED130E946712C7010E94D10D0E94ED1383
:10186000DF91CF911F910F91FF90EF90DF90BF908C
:10187000AF909F908F900C948812802F0E94B31489
:10188000DBCFFC2FFF70BF2EC07FC03219F0B294A7
:1018900080EFB822DD2369F0D13029F1112369F1FD
:1018A000002359F0F701858180FFB0CF8F708583C9
:1018B00004C0112361F0011104C08B2D0E94A00B04
:1018C000BDCF8B2D0130D1F70E94CF14B7CF0111BE
:1018D00006C00E94D2148B2D0E94A70BAFCF0130FF
:1018E00009F4ACCFF6CF112321F0063008F0A6CFD3
:1018F000E4CF053008F0A2CFEECF002361F38D2FA7
:101900000E94510B9BCF8C2F86958695837069F032
:10191000813009F093CF8D2F9C2F9370111102C04D
:1019200090E080E00E94720989CF8D2F9C2F9370E8
:10193000111102C090E080E00E945C097FCF8D2FE2
:10194000112329F00E9424180E94101977CF0E94B9
:101950008C18FACF8C2F837009F047C011116ECF0D
:101960002D2F229526952770220F220F6D2F6F7035
:10197000862E912CB12CA12C022E04C0880C991C0F
:10198000AA1CBB1C0A94D2F760E070E0CB01D4FF24
:101990000FC06FE070E080E090E004C0660F771F3A
:1019A000881F991F2A95D2F760957095809590951C
:1019B000C695C695C370C23051F080F46829792964
:1019C0008A299B29C13071F00E94101237CF6829F3
:1019D00079298A299B290E942C1230CF0E9410124B
:1019E000C501B4010E94F41129CF8695112311F08D
:1019F0008C2F8170882309F421CF2D2F22952695D5
:101A00002770220F220F6D2F6F70862E912CB12C14
:101A1000A12C022E04C0880C991CAA1CBB1C0A9481
:101A2000D2F760E070E0CB01D4FF0FC06FE070E050
:101A300080E090E004C0660F771F881F991F2A95E9
:101A4000D2F76095709580959095C695C695C370B0
:101A5000C23051F080F4682979298A299B29C13044
:101A600071F00E94EA12EACE682979298A299B2915
:101A70000E940613E3CE0E94EA12C501B4010E943F
:101A8000CE12DCCEE0E2ED0FE53108F062C0F0E00E
:101A9000E45BF24F0C94F721610D610D610D610D56
:101AA000610D610D610D610D610D610D610D610DC6
:101AB000610D610D610D610D6E0D7C0D830D8A0D43
:101AC000940DDF708C2F8F71112321F00E9467120B
:101AD0008D2FF4CE0E9488128D2FFECE112341F05F
:101AE000053008F0ABCE8C2F8F710E94AD12A6CEC0
:101AF000063008F0A3CEF7CF8C2F8F71112339F069
:101B00000E9467129BCE8C2F8F711123C9F30E9404
:101B1000881294CE112329F08C2F8F710E945212BB
:101B20008DCE0E9448128ACE112349F0CF718C2F9E
:101B30000E94671263E08C2F0E94F7137FCE81E032
:101B40000E940014023008F479CE82E00E94001452
:101B500075CE112329F0011159CE8C2F8F71D0CF62
:101B60000111CDCE8C2F8F71D2CF4C2F4F706D2F96
:101B7000C7010E943A040E94711160CE4C2F4F7031
:101B80006D2FC7010E94A20559CEDF91CF911F9101
:101B90000F91FF90EF90DF90BF90AF909F908F904C
:101BA00008950F931F93CF93DF93EC019881898160
:101BB0002B813C81232B39F08F3F19F481E09F3F2B
:101BC00019F080E001C081E080FD17C0CE010E94C5
:101BD0005C04882391F0688179818A810E94C9130D
:101BE0008C010E9422130E94E911B801CE01DF91FD
:101BF000CF911F910F910C94AE0BDF91CF911F915C
:101C00000F9108950E94BB140E94CC140E948E1460
:101C10000E94E5140E94BD190E94101990E080E016
:101C20000E945C0990E080E00C9472090E94AA1462
:101C30000C94020E0E94BF13E92FE295EF70E25060
:101C4000EE30E0F4F0E0E95DF14F0C94F721350E51
:101C5000350E3E0E3E0E400E3E0E3E0E3E0E350E34
:101C6000350E450E3E0E3E0E450E803F19F020F417
:101C7000803E20F481E00895843FE1F380E0089500
:101C8000803EC0F3813FD1F7F5CF93FB882780F9E1
:101C90000895CF93DF9300D000D01F92CDB7DEB769
:101CA0000F900F900F900F900F90DF91CF910895AC
:101CB000CF93DF9300D000D000D0CDB7DEB726960B
:101CC0000FB6F894DEBF0FBECDBFDF91CF91089560
:101CD0001F93CF93DF93C0916B0116E080916C014D
:101CE0008C1304C0DF91CF911F910895D0E01C9F09
:101CF000F0011D9FF00D1124E359FE4F40815181E9
:101D000062817381848195810E94580E2196C770EB
:101D1000E5CF40919D0150919E0160919F0170918E
:101D2000A0018091A1019091A2010C94580E1F93E3
:101D3000CF93DF938091A201807FD1F480919F01A6
:101D40008823B1F080916B01D0916C01B0919D011D
:101D5000C0919E014091A0015091A101A1E0BF3F1F
:101D600009F0A0E0BA016095709516E0D81304C0A0
:101D7000DF91CF911F91089521E04115510521F088
:101D80002A2FCF3F09F020E090E020FD38C0189FB7
:101D9000F001199FF00D1124E359FE4F21812C13FE
:101DA0002EC020812B132BC02281211128C023811A
:101DB00034812417350700F1241B350B283C3105ED
:101DC000F0F42091A2012F7020612093A20126E05F
:101DD000289FF001299FF00D1124EE58FE4F8081BD
:101DE0008F70806180838DE991E00E94D10DDF9139
:101DF000CF911F910C94680E260F371FDFCF0196ED
:101E00008770B4CFAF92BF92CF92DF92EF92FF92E2
:101E10000F931F93CF93DF93CDB7DEB761970FB6C4
:101E2000F894DEBF0FBECDBF8C0185E0F801DE0166
:101E30001D9601900D928A95E1F7D8014C9111966B
:101E40005C9111971296EC9030919D0160919E01EA
:101E50008091A0019091A10121E0009731F06F3FA6
:101E600019F421E03F3F09F020E0B22FB170BB2E02
:101E700020FD80C1F801C380D480A0909F01AA20DA
:101E800009F427C1C816D906D0F1D601A81BB90B91
:101E9000CD01FF24F394883C910508F0F12C80914A
:101EA000A201982F907FFF2009F4CAC0911187C02A
:101EB000FE2C651329C0341327C0E11025C08F7094
:101EC00080618093A2010E94890E8DE991E00E94B9
:101ED000D10D8091A201F80185838F2D61960FB6F7
:101EE000F894DEBF0FBECDBFDF91CF911F910F9150
:101EF000FF90EF90DF90CF90BF90AF9008958095C6
:101F000090958C0D9D1DC5CF81E0CD2831F05F3FB0
:101F100019F481E04F3F09F080E080FD24C081E0AA
:101F20008E25F82FF170DF2E80FF3FC080916B016E
:101F300020916C0136E0821318C04D875E878D8535
:101F40009E850E94BF13292F22952F70223008F101
:101F5000243030F59F7009F1D80115969C91907F3F
:101F6000E1F4FB2CBACF80E0DCCF90E0389FF001A9
:101F7000399FF00D1124E359FE4F6181561306C0BD
:101F80006081461303C062816E110FC00196877095
:101F9000D2CF9F7011F0882321F3805E883008F340
:101FA000C8010E94D10DBD2CDCCFEE2009F495CFE5
:101FB0008091A20181608093A201F12C8ECF6513E4
:101FC00012C0341310C0E1100EC0F8018583C8019F
:101FD0000E94D10D86E0F801ADE9B1E001900D92CB
:101FE0008A95E1F741C04D875E878D859E850E9469
:101FF0001A0E882309F4C8C0EE2009F4C5C08091E8
:10200000A201803270F020919D0130919E013887AD
:102010002F831986DB86CA868C87CE0107960E949D
:10202000D10D86E0F801ADE9B1E001900D928A95FD
:10203000E1F70E94970E0E94890EFF24F3944DCF82
:10204000911115C07C2DD98AC88A6E2D89890E946C
:10205000490E8DE991E00E94D10D86E0EDE9F1E0B5
:10206000DF011D928A95E9F70E94890E36CF65132C
:1020700012C0341310C0E1100EC0F8018583C801EE
:102080000E94D10DEDE9F1E086E0DF011D928A9515
:10209000E9F7FA2C22CF4D875E878D859E850E94B9
:1020A0001A0E882309F470C0EE2009F46DC08091E7
:1020B000A201803208F4B5CF20919D0130919E019C
:1020C0003A8329831B82DD82CC828E83CE010196E6
:1020D000A6CFC816D90638F1F601E81BF90BCF01D7
:1020E000F12C883C910508F03DC0FE2CEE2009F44F
:1020F0004BC0651326C0341324C08091A20180FD1B
:1021000017C0982F907FA1F0D80115968C93159742
:10211000903F09F45CCF982F907F905F8F70892B50
:1021200015968C9354CF809590958C0D9D1DD8CF8E
:1021300086E0F801ADE9B1E001900D928A95E1F7F2
:10214000CCCE4D875E878D859E850E941A0E8111AB
:1021500068CF8091A20181608093A201C8010E9492
:10216000D10DBBCE7C2DD98AC88A6E2D89890E945B
:10217000490E73CFEE2041F04D875E878D859E8599
:102180000E941A0E81114DCFC8010E94D10D55CF6A
:102190001F93CF93DF93CDB7DEB72C970FB6F8948C
:1021A000DEBF0FBECDBF4F83588769877A878B8785
:1021B0009C87CE0107960E94020F882309F442C033
:1021C0009F8188852A853B85232B39F08F3F19F421
:1021D00081E09F3F19F080E001C081E080FD08C0F0
:1021E0004F81588569857A858B859C850E94580E1C
:1021F00016E080916B0190916C01891709F467C01A
:10220000819FC001112483599E4F0E94020F882391
:1022100009F45DC0E0916B011E9FF0011124E359A8
:10222000FE4F4081518162817381848195810E943A
:10223000580E80916B0190E00196877099278093EA
:102240006B01D7CF86E0FE013796DE011196019033
:102250000D928A95E1F79F8188852A853B85232BFE
:1022600039F08F3F19F481E09F3F19F080E001C001
:1022700081E080FDBDCF20916C0130E0C901019665
:102280008770992740916B014817190699F096E0DD
:10229000929FD001939FB00D1124A359BE4FFE0110
:1022A000319601900D929A95E1F780936C010E940E
:1022B000680E9ECF0E94160E10926C0110926B0158
:1022C00086E0EDE9F1E0DF011D928A95E9F72C96B1
:1022D0000FB6F894DEBF0FBECDBFDF91CF911F9137
:1022E0000895EF92FF920F931F93CF93DF938C018A
:1022F000892B81F0F12CEE24E394E8012196F8017A
:102300008491843770F4843008F05FC08130B1F07C
:102310008230A1F1DF91CF911F910F91FF90EF904B
:102320000895853709F44CC008F43DC09CE7980F28
:10233000903780F78F770E94510B49C00E5F1F4F77
:10234000FE01849190E2980F983060F48770FE2D22
:1023500001C0FF0F8A95EAF78F2F0E94BE140E94DA
:10236000E51402C00E94750A8F2D815030F2EFE90A
:10237000FFE03197F1F700C00000F7CF0E5F1F4F6D
:10238000FE01849190E2980F983050F48770FE2DF2
:1023900001C0FF0F8A95EAF78F2F0E94C414DFCF88
:1023A0000E94510BE1CF0E5F1F4FFE01C491C1503F
:1023B000D8F28FE99FE00197F1F700C00000F7CF56
:1023C0000E5F1F4FFE01F490CFCF0E94750A8E0161
:1023D000CBCF08956093C5017093C6018093C70168
:1023E0009093C8010C94020E0F931F930091C501A6
:1023F0001091C6012091C7013091C801DC01CB01C9
:10240000802B912BA22BB32B8093C5019093C601F7
:10241000A093C701B093C8011F910F910C94020EB5
:102420000F931F930091C5011091C6012091C70120
:102430003091C801DC01CB0180239123A223B32377
:102440008093C5019093C601A093C701B093C801C2
:102450001F910F910C94020E0F931F930091C501D1
:102460001091C6012091C7013091C801DC01CB0158
:1024700080279127A227B3278093C5019093C60197
:10248000A093C701B093C8011F910F910C94020E45
:102490001092C1011092C2011092C3011092C401A6
:1024A0000C94020E41E050E060E070E004C0440F84
:1024B000551F661F771F8A95D2F74093C10150932D
:1024C000C2016093C3017093C4010C94020E41E0F9
:1024D00050E060E070E004C0440F551F661F771F96
:1024E0008A95D2F78091C1019091C201A091C30158
:1024F000B091C401842B952BA62BB72B8093C101DF
:102500009093C201A093C301B093C4010C94020E36
:1025100041E050E060E070E004C0440F551F661FCA
:10252000771F8A95D2F74095509560957095809168
:10253000C1019091C201A091C301B091C401842353
:102540009523A623B7238093C1019093C201A09342
:10255000C301B093C4010C94020E41E050E060E06E
:1025600070E004C0440F551F661F771F8A95D2F78D
:102570008091C1019091C201A091C301B091C401A9
:1025800084279527A627B7278093C1019093C2017E
:10259000A093C301B093C4010C94020E0F931F9338
:1025A0000091C1011091C2012091C3013091C40179
:1025B000DC01CB01802B912BA22BB32B8093C1018B
:1025C0009093C201A093C301B093C4011F910F91D6
:1025D0000C94020E0F931F930091C1011091C20140
:1025E0002091C3013091C401DC01CB0180239123F0
:1025F000A223B3238093C1019093C201A093C3018E
:10260000B093C4011F910F910C94020E0F931F936E
:102610000091C1011091C2012091C3013091C40108
:10262000DC01CB0180279127A227B3278093C1012A
:102630009093C201A093C301B093C4011F910F9165
:102640000C94020E08952BE0929F800D1124982F78
:10265000977071E001C0770F9A95EAF78695869595
:10266000869525E0829FC001112450E040E0A62F0E
:10267000B0E0FC01E40FF51FED55FE4F60819D01B8
:10268000042E02C0369527950A94E2F72170219511
:1026900026272723262720834F5F5F4F453051058C
:1026A00041F708952BE0929F800D1124982F977089
:1026B00086958695869525E0829FA001112470E07D
:1026C00060E080E0FA01E60FF71FED55FE4F208134
:1026D00030E0092E02C0369527950A94E2F7217062
:1026E0003327062E01C0220F0A94EAF7822B6F5F70
:1026F0007F4F6530710531F70895BF92CF92DF9219
:10270000EF92FF920F931F93CF93DF938C01C090B2
:10271000C101D090C201E090C301F090C40180914A
:10272000C5019091C601A091C701B091C801C82A06
:10273000D92AEA2AFB2ACFE1D0E0BC2ED701C60174
:102740000C2E04C0B695A795979587950A94D2F755
:1027500080FD0EC0219788F7B12C8B2DDF91CF9192
:102760001F910F91FF90EF90DF90CF90BF90089551
:10277000B8018C2F0E94BF05019761F3EECFCF9374
:10278000DF93EC010E947D13BE01DF91CF910C9489
:10279000BF051F93CF93DF93EB0190916A019923BB
:1027A00031F0CB01DF91CF911F910C94BF1388239F
:1027B00079F0CB010E947D13182F682FCE010E9463
:1027C0002313BE01812FDF91CF911F910C94BF0580
:1027D000CB010E945213182FF4CF8091C901859527
:1027E0008595859508958091C9018770089598E031
:1027F000899F90011124622B6093C9010C94671288
:102800009091C901809589238093C901282F277051
:1028100061F4282F082E000C330B9217130629F0B1
:102820008595859585950C94881208959091C90198
:10283000977081E009F480E0089590911201992346
:10284000E1F090911F0297FF18C0E82FE695E695FA
:10285000E695EF3139F12091000130910101E20F4D
:10286000F32FF11D877021E030E001C0220F8A951F
:10287000EAF78181822B81830895209100013091B4
:102880000101F90132969FEF40E05191851751F017
:102890009F3F19F4511101C0942F4F5F4E31A9F79A
:1028A0009F3F09F40895290F311D97FD3A95F901CD
:1028B00082830895909112019923F1F090911F0263
:1028C00097FF1AC0E82FE695E695E695EF3129F1D6
:1028D0002091000130910101E20FF32FF11D282F0B
:1028E000277081E090E001C0880F2A95EAF7809573
:1028F0009181892381830895209100013091010104
:10290000F9013296205E3F4F9191891303C0DF0198
:1029100011971C92E217F307B9F7089581E090E050
:10292000E0910001F0910101E80FF91F108201967A
:1029300080329105A9F708959091ED01892B80933C
:10294000ED010895982F90958091ED018923809352
:10295000ED0108951092ED0108959091EC01892BFD
:102960008093EC010895982F90958091EC01892334
:102970008093EC0108951092EC0108959091EB0181
:10298000892B8093EB010895982F90958091EB010E
:1029900089238093EB0108951092EB0108958093B1
:1029A000CA0108951092CA01089520910001309142
:1029B0000101F9013196205E3F4F80E09191911124
:1029C0008F5FE217F307D1F70895E0910001F091CE
:1029D00001018091ED018083E0910001F0910101FE
:1029E00080819091EC01892B8083E0910001F0912E
:1029F000010180819091EB01892B80839091CA0124
:102A0000992361F0E0910001F09101018081892B0F
:102A100080830E94D51481111092CA018091000117
:102A2000909101010C9446096DEE7EEF90E080E0FC
:102A30000E94312260E082E090E00E941F2260E06C
:102A400083E090E00E941F2260E084E090E00E941A
:102A50001F2260E085E090E00C941F2290E080E06F
:102A60000E94192221E08D3E9E4F09F020E0822F26
:102A7000089582E090E00C941122682F82E090E0AB
:102A80000C941F2283E090E00C941122682F83E0C5
:102A900090E00C941F2284E090E00C941122682FA7
:102AA00084E090E00C941F2280912502843039F15B
:102AB0001092EF0188E190E020E40FB6F894A89519
:102AC000809360000FBE2093600080E00E94A0050C
:102AD00083B7817F846083BF83B7816083BF78942D
:102AE000889583B78E7F83BF0FB6F894A8958091A1
:102AF0006000886180936000109260000FBE0895AE
:102B000008950895CF930E9480150E946A080E943C
:102B10008115C0E08C2F0E942B09892B31F4CF5FE7
:102B2000C430C1F780E0CF91089581E0FCCF0E94CE
:102B3000160E0E943A090C94A0051F920F920FB630
:102B40000F9211248F939F93AF93BF938091EF01C6
:102B5000811113C080911B0290911C02A0911D0253
:102B6000B0911E024196A11DB11D80931B0290934E
:102B70001C02A0931D02B0931E02BF91AF919F91C2
:102B80008F910F900FBE0F901F90189582E084BD1B
:102B900093E095BD9AEF97BD80936E0008952FB78F
:102BA000F89480911B0290911C02A0911D02B0919B
:102BB0001E022FBF0895CF92DF92EF92FF920F93E4
:102BC0001F932FB7F89440911B0250911C02609103
:102BD0001D0270911E022FBF6A017B01EE24FF24AB
:102BE0008C0130E020E0C016D106E206F30650F07A
:102BF000481B590BCA011F910F91FF90EF90DF9076
:102C0000CF90089541505109F3CF1F920F920FB604
:102C10000F9211248F939F93AF93BF9380911B02C8
:102C200090911C02A0911D02B0911E020196A11D5F
:102C3000B11D80931B0290931C02A0931D02B093C0
:102C40001E02BF91AF919F918F910F900FBE0F9079
:102C50001F9018950E94B71DF8942FEF87EA91E610
:102C6000215080409040E1F700C0000087E090EBE9
:102C7000DC0180932E0290932F02A0933002B09338
:102C8000310288E19CE00FB6F894A895809360002B
:102C90000FBE90936000FFCFAF92BF92CF92DF92B2
:102CA000EF92FF920F931F93CF93C0E0CC24C39475
:102CB000D12CE82EF12C8C2F0E942B095C0110E006
:102CC00000E0C601002E02C0880F991F0A94E2F7A7
:102CD0008A219B21892B99F40F5F1F4F0B3011051F
:102CE00081F7CF5FC43039F780E0CF911F910F910A
:102CF000FF90EF90DF90CF90BF90AF900895602F3E
:102D00007C2F80E00E94A305E816F90629F781E0F0
:102D1000ECCFCF93C82F8CE20E944C16882321F071
:102D20008C2FCF910C944C1680E0CF910895CF93C7
:102D30000E942E15811102C00E941415C5E6C150D3
:102D400009F0D1C089E20E9489168111F8C08AE297
:102D50000E94891681110E94141585E00E9489162F
:102D600081110E942A160E9439158093EE0187E096
:102D70000E948916882371F08BE10E9489168823AE
:102D800009F4BAC09091EE01892F8D7F91FF826086
:102D90008093EE018091EE010E943D150E944B153B
:102DA00090E09093200280931F0280EE0E9489168B
:102DB000882341F090911F02892F8E7F90FF8160C0
:102DC00080931F0289E30E948916882341F0909125
:102DD0001F02892F8D7F91FF826080931F0282EEF8
:102DE0000E948916882341F090911F02892F8B7FC2
:102DF00092FF846080931F0286EE0E9489168823CA
:102E000041F090911F02892F877F93FF8860809304
:102E10001F0283EE0E948916882341F090911F02C1
:102E2000892F8F7E94FF806180931F0285E30E942B
:102E30008916882341F090911F02892F8F7D95FF7D
:102E4000806280931F0281E30E948916882341F0EB
:102E500090911F02892F8F7B96FF806480931F02C1
:102E600081E10E948916882341F090911F02892FE9
:102E700097FB87F9805880931F0280911F020E9460
:102E80004F1587E20E948916C82F8EE10E9489168D
:102E90008111C2608FE10E9489168111C46080E2B5
:102EA0000E9489168111C86081E20E9489168111F1
:102EB000C06182E20E9489168111C06283E20E9491
:102EC00089168111C06484E20E948916882389F1E1
:102ED000C0688C2F0E9446156C2F70E090E080E057
:102EE000CF910C94EA110E946A088FE39CE9019744
:102EF000F1F700C0000023CF8EE00E9489168823DE
:102F000039F09091EE01892F8B7F92FF846040CF42
:102F100080E10E9489169091EE01882329F0892F83
:102F2000877F93FF886034CF892F8E7F90FF8160E9
:102F30002FCFC111CECF0E944215682FCECFCF9197
:102F400008958091F20180FF12C06091050185E033
:102F5000689FB001112475956795759567956038E0
:102F60007105A8F561157105A1F1862F089581FFFE
:102F700009C06091050185E0689FB0011124759535
:102F80006795EDCF82FF07C06091050185E0689FDE
:102F9000B0011124E4CF2091F3012223A9F09091F4
:102FA00004016091050185E0689FB0011124291793
:102FB000B0F6269FA001279F500D1124692F70E0C5
:102FC000CA010E94E321CBCF65E070E0CECF8FE74E
:102FD000089581E008958091F20180FF0CC0609116
:102FE000030170E075956795759567956115710595
:102FF00049F1862F089581FF06C06091030170E0BA
:1030000075956795F3CF6091030182FD0BC0909198
:10301000F3019923A1F060910201809103019617B9
:1030200038F0682F70E06038710500F38FE708957D
:10303000899FC001112470E00E94E321F4CF61E078
:1030400070E0D7CF81E00895803F31F40E94A1174E
:1030500081958093F6010895813F19F40E94A1178C
:10306000F8CF823F31F40E94A11781958093F5013A
:103070000895833F19F40E94A117F8CF893F29F4DE
:103080000E94EB178093F70108958A3F21F40E9474
:10309000EB178195F7CF8B3F31F40E94EB178195A9
:1030A0008093F80108958C3F19F40E94EB17F8CF34
:1030B000843F31F48091F40181608093F40108959C
:1030C000853F21F48091F4018260F7CF863F21F49F
:1030D0008091F4018460F1CF873F21F48091F40165
:1030E0008860EBCF883F21F48091F4018061E5CFC7
:1030F0008D3F31F48091F20181608093F201089557
:103100008E3F21F48091F2018260F7CF8F3FB9F7B3
:103110008091F2018460F1CF803FC1F48091F6018B
:1031200087FD1092F6018091F50181110EC080910A
:10313000F60181110AC08091F701811106C08091CA
:10314000F801811102C01092F3010895813F29F422
:103150008091F60118162CF3E6CF9091F501823F8D
:1031600029F497FFE0CF1092F501DDCF833F19F4EA
:103170001916CCF3D8CF893F39F48091F70118168E
:1031800094F61092F701CFCF8A3F29F48091F7018E
:1031900087FFC9CFF6CF8B3F39F48091F80187FFC5
:1031A000C2CF1092F801BFCF8C3F29F48091F80173
:1031B0001816BCF3B8CF843F31F48091F4018E7FB0
:1031C0008093F401B0CF853F21F48091F4018D7F8D
:1031D000F7CF863F21F48091F4018B7FF1CF873FB9
:1031E00021F48091F401877FEBCF883F21F4809117
:1031F000F4018F7EE5CF8D3F31F48091F2018E7F17
:103200008093F20190CF8E3F21F48091F2018D7F67
:10321000F7CF8F3F09F087CF8091F2018B7FF0CFFE
:1032200084EF91E00E9451090E94CF159093F10123
:103230008093F00108951F93CF93DF938091F00165
:103240009091F1010E94DB15AC019091F301209166
:10325000060130E0911106C0209107018AE0289F05
:10326000900111244217530780F08091F501C0911D
:10327000F6011091F701D091F80181110AC0C11136
:1032800078C0111176C0D11174C0DF91CF911F9118
:1032900008959F3F19F09F5F9093F301181624F44F
:1032A0000E94A1178093F5018091F50187FF05C069
:1032B0000E94A11781958093F5011C1624F40E94A9
:1032C000A1178093F6018091F60187FF05C00E9447
:1032D000A11781958093F6016091F501662331F184
:1032E000C091F601CC2311F1062E000C770B880B50
:1032F000990B0E94EA2023E333E343E35FE30E9458
:103300004E210E94B2206093F5016C2FCC0F770BF9
:10331000880B990B0E94EA2023E333E343E35FE346
:103320000E944E210E94B2206093F601111624F4EF
:103330000E94EB178093F7018091F70187FF05C08A
:103340000E94EB1781958093F7011D1624F40E94CB
:10335000EB178093F8018091F80187FF05C00E9468
:10336000EB1781958093F801DF91CF911F910C9419
:1033700010199F3F09F08FCFA0CF85E0E4EFF1E077
:10338000DF011D928A95E9F71092F3011092F20184
:103390000895809119020895CF93DF9300D01F9272
:1033A000CDB7DEB79C0180912502843019F593E0FA
:1033B00099833B832A839093E9008FEF9091E800F3
:1033C000815095FD06C095ED9A95F1F700008111A9
:1033D000F5CF8091E80085FF0DC050E040E063E04C
:1033E00070E0CE0101960E94271C8091E8008E7744
:1033F0008093E8000F900F900F90DF91CF91089588
:10340000CF93DF9300D01F92CDB7DEB72091250276
:10341000243031F522E02983805891099B838A83E7
:1034200083E08093E9008FEF9091E800815095FD53
:1034300006C095ED9A95F1F700008111F5CF8091C6
:10344000E80085FF0DC050E040E063E070E0CE0191
:1034500001960E94271C8091E8008E778093E800F7
:103460000F900F900F90DF91CF9108959C01809164
:1034700025028430F9F482E08093E9009FEF809187
:10348000E800915085FD06C085ED8A95F1F70000B2
:103490009111F5CF8091E80085FF0CC050E040E02D
:1034A00065E070E0C9010E94271C8091E8008E77DA
:1034B0008093E8000895CF93DF93EC01809125027B
:1034C0008430F1F4909112019923E9F090911F0258
:1034D00097FF19C08093E9008FEF9091E800815029
:1034E00095FD06C095E19A95F1F700008111F5CFA1
:1034F0008091E80050E040E060E270E085FD1AC095
:10350000DF91CF91089581E08093E9008FEF909152
:10351000E800815095FD06C095ED9A95F1F7000001
:103520008111F5CF8091E80085FFEACF50E040E0BF
:1035300068E070E0CE010E94271C8091E8008E7741
:103540008093E80080E2FE01A9EFB1E001900D92C6
:103550008A95E1F7D5CF80912402811109C00E949C
:10356000B71D0E94141E8091E20084608093E200E7
:103570000895109224020895089508950C949715C3
:1035800042E061EC81E00E94351D42E061EC82E0A6
:103590000E94351D42E061EC83E00E94351D42E24D
:1035A00061EC84E00C94351D80912702833009F48E
:1035B00055C030F4813071F1823009F491C0089522
:1035C0008A3009F47DC08B3009F463C0893009F07A
:1035D00044C080912602813209F03FC080912A02C6
:1035E00090912B02009711F00397B9F58091E800B4
:1035F000877F8093E8008091E80082FF2AC0809155
:10360000F100809319028091E8008B778093E800A5
:103610000C94691D80912602813AF9F48091E800AA
:10362000877F8093E80080912A0290912B02892B5A
:1036300061F460E289EF91E070E00E94761C809175
:10364000E8008B778093E800089560E090E080E0E8
:10365000F3CF809125028111CECF0895809126026B
:10366000813AD9F780912A0290912B02892BA9F7F0
:103670008091E800877F8093E8008091E80080FFD8
:10368000FCCF809112018093F1008091E8008E7749
:10369000BDCF80912602813201F780912A0290915C
:1036A0002B02892BD1F68091E800877F8093E80078
:1036B0000E94691D80912802809312010C94160EBD
:1036C00080912602813249F68091E800877F8093BD
:1036D000E8000E94691D8091290280931A020895D2
:1036E00080912602813A09F0B8CF8091E800877F67
:1036F0008093E8008091E80080FFFCCF80911A025F
:10370000C2CF84B7877F84BF0FB6F894A895809105
:103710006000886180936000109260000FBE80E8B6
:1037200080936100109261000E9489090E94B71D78
:103730000E94141E8091E20084608093E2007894DD
:103740000E9496200E948B0988E091E00E94350932
:1037500080912502853019F00E949109F9CF0E94CD
:10376000541580912302882399F30E94821588239F
:1037700079F30E94111CECCF292F33272330310518
:1037800079F158F421303105F1F02230310519F189
:1037900090E080E030E020E01AC02132310599F15C
:1037A00022323105A9F7643098F770E0FB01EE0F83
:1037B000FF1FEA5DFE4F208131816E5D7E4FFB0170
:1037C000808190E004C082E190E024ED36E0FA01CF
:1037D0003183208308958DE690E027E636E0F7CF29
:1037E00099278130910561F028F0029789F6E7E387
:1037F000F6E002C0E3E6F6E0849190E09F01E7CFB7
:10380000EBE4F6E0F9CF643008F0C2CFE62FF0E049
:10381000EE0FFF1FE25DFE4F2081318189E090E0D5
:10382000D6CF80E189BD82E189BD09B400FEFDCF1C
:103830008091D8008F7D8093D8008091E0008260D5
:103840008093E0008091E00081FDFCCF0895AF926D
:10385000BF92CF92DF92FF920F931F93CF93DF938C
:103860006C01EB018A010E94881DF82E811123C092
:103870000115110539F0F80180819181C81BD90B20
:10388000C80ED91EB12CA12C2097A9F08091E80078
:1038900085FD22C08091E8008E778093E8000115B5
:1038A0001105A1F0F80180819181A80EB91EB182A5
:1038B000A08285E0F82E8F2DDF91CF911F910F917F
:1038C000FF90DF90CF90BF90AF9008950E94881D29
:1038D0008823D1F2F82EEFCFF60181916F0180930A
:1038E000F1002197FFEFAF1ABF0ACECFFC01809104
:1038F0002C0290912D0286179707A0F06115710593
:1039000029F49091E8009E779093E80090E061158B
:10391000710551F4911108C08091E80082FF35C013
:1039200080E00895BC01F2CF809125028823C9F17F
:103930008530C9F18091E80083FD31C08091E800B5
:1039400082FDEACF8091E80080FFE1CF2091F30073
:103950008091F200322F282F6115710519F028305F
:10396000310558F091E02830310509F090E02091C0
:10397000E8002E772093E800CACF81918093F10070
:10398000615071092F5F3F4FE7CF80912502882357
:1039900041F0853041F08091E80083FFBDCF81E0A8
:1039A000089582E0089583E00895FC0180912C023F
:1039B00090912D0286179707A0F06115710529F4E3
:1039C0008091E8008E778093E80090E061157105A2
:1039D00051F4911108C08091E80082FF36C080E068
:1039E0000895BC01F2CF809125028823D1F1853062
:1039F000D1F18091E80083FD32C08091E80082FD22
:103A0000EACF8091E80080FFE1CF2091F300809120
:103A1000F200322F282F6115710519F02830310579
:103A200058F091E02830310509F090E08091E800ED
:103A30008E778093E800CACF84918093F10031960D
:103A4000615071092F5F3F4FE6CF80912502882397
:103A500041F0853041F08091E80083FFBCCF81E0E8
:103A6000089582E0089583E00895982F973028F014
:103A70008F708093E90081E008959093E900242FEE
:103A8000762F50E0981731F07091EC002091ED0006
:103A90005091F00021FD02C09F5FE8CF3091EB0014
:103AA0003E7F3093EB003091ED003D7F3093ED0091
:103AB0003091EB0031603093EB007093EC00209379
:103AC000ED005093F0002091EE0027FDE5CF80E05F
:103AD00008958091260287FF13C08091E80082FF3D
:103AE00006C08091E8008B778093E80004C0809145
:103AF00025028111F2CF0895809125028823D9F300
:103B00008091E80080FFF8CF8091E8008E77ECCFBD
:103B10002091E4003091E50085E69091EC0090FF63
:103B200006C09091E80090FF06C080E00895909153
:103B3000E80092FDFACF90912502992391F09530FB
:103B400091F09091EB0095FD10C04091E4005091F0
:103B5000E5002417350709F381509A01F1F684E056
:103B6000089582E0089583E0089581E008950E9419
:103B7000251E0E942D1EE0EEF0E080818160808392
:103B8000E8EDF0E080818F77808319BCA7EDB0E08D
:103B90008C918E7F8C9380818F7E80831092240203
:103BA00008950F931F93CF93DF930E94251E0E94C9
:103BB0002D1EC8EDD0E088818F778883888180684A
:103BC000888388818F7D888319BC1092250210928A
:103BD0002102109223021092220200EE10E0F8015E
:103BE00080818B7F808388818160888342E060E070
:103BF00080E00E94351DE1EEF0E080818E7F8083C1
:103C0000E2EEF0E080818160808380818860808343
:103C1000F80180818E7F8083888180618883DF9135
:103C2000CF911F910F910895E8EDF0E080818F7E94
:103C30008083E7EDF0E080818160808384E082BF53
:103C400081E0809324020C94D11DE8EDF0E08081A6
:103C50008E7F80831092E20008951092DA00109215
:103C6000E10008951F920F920FB60F9211242F9327
:103C70003F934F935F936F937F938F939F93AF93F4
:103C8000BF93EF93FF938091E10082FF0BC080917F
:103C9000E20082FF07C08091E1008B7F8093E1000A
:103CA0000E9495208091DA0080FF19C08091D80091
:103CB00080FF15C08091DA008E7F8093DA008091BA
:103CC000D90080FF94C080E189BD82E189BD09B43B
:103CD00000FEFDCF81E0809325020E94AB1A809107
:103CE000E10080FF19C08091E20080FF15C0809143
:103CF000E2008E7F8093E2008091E20080618093F9
:103D0000E2008091D80080628093D80019BC85E0E1
:103D1000809325020E94BD1A8091E10084FF29C092
:103D20008091E20084FF25C080E189BD82E189BDE8
:103D300009B400FEFDCF8091D8008F7D8093D8001C
:103D40008091E1008F7E8093E1008091E2008F7E80
:103D50008093E2008091E20081608093E200809194
:103D60002102882309F449C084E0809325020E943F
:103D7000BE1A8091E10083FF29C08091E20083FF99
:103D800025C08091E100877F8093E10082E08093ED
:103D90002502109221028091E1008E7F8093E10044
:103DA0008091E2008E7F8093E2008091E20080614A
:103DB0008093E20042E060E080E00E94351D809147
:103DC000F00088608093F0000E94BC1AFF91EF9190
:103DD000BF91AF919F918F917F916F915F914F9123
:103DE0003F912F910F900FBE0F901F90189519BC07
:103DF000109225020E94B91A72CF8091E30087FDCC
:103E000002C081E0B2CF83E0B0CF1F920F920FB615
:103E10000F9211242F933F934F935F936F937F9350
:103E20008F939F93AF93BF93CF93EF93FF93C091E3
:103E3000E900CF708091EC001092E9008091F000D1
:103E4000877F8093F00078940E94411F1092E900D0
:103E50008091F00088608093F000C093E900FF91AA
:103E6000EF91CF91BF91AF919F918F917F916F9182
:103E70005F914F913F912F910F900FBE0F901F9028
:103E800018951F93CF93DF93CDB7DEB7AA970FB6E0
:103E9000F894DEBF0FBECDBFE6E2F2E08091F10004
:103EA000819322E0EE32F207C9F70E94D41A809182
:103EB000E80083FF42C080912602909127029A3049
:103EC00008F03BC0E92FF0E0E859F04E0C94F721E0
:103ED000721F961F9D1F961F9D1FF11F13209D1F70
:103EE00068207520803879F0823839F580912A026F
:103EF0008F708093E9008091EB0085FB882780F923
:103F00001092E90006C08091220290912302911143
:103F100082609091E800977F9093E8008093F10091
:103F20001092F1008091E8008E772DC0282F2D7F10
:103F300021F48823D1F0823059F18091E80083FF89
:103F40000AC08091E800877F8093E8008091EB00B1
:103F500080628093EB00AA960FB6F894DEBF0FBE86
:103F6000CDBFDF91CF911F910895809128028130BC
:103F700021F7933009F080E0809323021092E9004A
:103F80008091E800877F8093E8000E94691DD5CF6B
:103F9000809128028111F2CF80912A028F7069F2FC
:103FA0008093E9002091EB0020FFE8CF933031F4BB
:103FB0008091EB0080628093EB00E0CF9091EB006A
:103FC00090619093EB0021E030E001C0220F8A95D0
:103FD000EAF72093EA001092EA008091EB008860F3
:103FE000EACF8111AACF109128021F778091E300B8
:103FF0008078812B8093E3008091E800877F809315
:10400000E8000E94691D8091E80080FFFCCF80914C
:10401000E30080688093E30083E0111101C082E037
:10402000809325028ACF8058823008F086CF809115
:104030002802909129028C3D23E09207A1F583E0AC
:104040008A838AE289834FB7F894DE01139620E0D1
:104050003EE051E2E32FF0E050935700E49120FF5F
:1040600003C0E295EF703F5FEF708E2F90E0EA3073
:10407000C0F0C7968D939D932F5F243159F74FBFA2
:104080008091E800877F8093E8006AE270E0CE01CB
:1040900001960E94761C8091E8008B778093E8005F
:1040A0004CCFC096E7CFAE014F5F5F4F60912A02C1
:1040B0000E94BC1BBC01892B09F43FCF9091E80002
:1040C000977F9093E80089819A810E94D51CE3CF65
:1040D000803809F032CF8091E800877F8093E80034
:1040E000809121028093F1001DCF811126CF909104
:1040F0002802923008F021CF8091E800877F8093DA
:10410000E800909321020E94691D8091210288237A
:1041100031F084E0809325020E94C01A0ECF809176
:10412000E30087FDF6CF81E0F5CF0895CF9380912E
:104130002502882399F0C091E900CF708091EC00AE
:1041400080FD0EC080E0C82B1092E9008091E8004D
:1041500083FD0E94411FCF70C093E900CF91089565
:1041600080E8F1CF0E94B9206894B1110C944821E5
:1041700008950E942D2188F09F5798F0B92F992714
:10418000B751B0F0E1F0660F771F881F991F1AF042
:10419000BA95C9F714C0B13091F00E944721B1E03F
:1041A00008950C944721672F782F8827B85F39F03E
:1041B000B93FCCF3869577956795B395D9F73EF4DB
:1041C00090958095709561957F4F8F4F9F4F089583
:1041D000E89409C097FB3EF49095809570956195A1
:1041E0007F4F8F4F9F4F9923A9F0F92F96E9BB2757
:1041F0009395F695879577956795B795F111F8CFD3
:10420000FAF4BB0F11F460FF1BC06F5F7F4F8F4F3D
:104210009F4F16C0882311F096E911C0772321F033
:104220009EE8872F762F05C0662371F096E8862FCB
:1042300070E060E02AF09A95660F771F881FDAF722
:10424000880F9695879597F9089557FD9058440FD4
:10425000551F59F05F3F71F04795880F97FB991FE5
:1042600061F09F3F79F087950895121613061406A2
:10427000551FF2CF4695F1DF08C01616170618062F
:10428000991FF1CF86957105610508940895E8940A
:10429000BB2766277727CB0197F908950E946121F4
:1042A0000C94D2210E94C42138F00E94CB2120F02E
:1042B000952311F00C94BB210C94C12111240C9472
:1042C00048210E94252170F3959FC1F3950F50E07E
:1042D000551F629FF001729FBB27F00DB11D639FB8
:1042E000AA27F00DB11DAA1F649F6627B00DA11D5E
:1042F000661F829F2227B00DA11D621F739FB00D04
:10430000A11D621F839FA00D611D221F749F332773
:10431000A00D611D231F849F600D211D822F762F0C
:104320006A2F11249F5750409AF0F1F088234AF0E9
:10433000EE0FFF1FBB1F661F771F881F9150504055
:10434000A9F79E3F510580F00C94BB210C944821A5
:104350005F3FE4F3983ED4F3869577956795B795DC
:10436000F795E7959F5FC1F7FE2B880F911D9695F6
:10437000879597F9089597F99F6780E870E060E066
:1043800008959FEF80EC089500240A9416161706EE
:1043900018060906089500240A9412161306140636
:1043A00005060895092E0394000C11F4882352F099
:1043B000BB0F40F4BF2B11F460FF04C06F5F7F4F51
:1043C0008F4F9F4F089597FB072E16F4009407D048
:1043D00077FD09D00E94FD2107FC05D03EF49095A1
:1043E00081959F4F0895709561957F4F0895EE0FC9
:1043F000FF1F0590F491E02D0994AA1BBB1B51E10E
:1044000007C0AA1FBB1FA617B70710F0A61BB70B44
:10441000881F991F5A95A9F780959095BC01CD01E9
:104420000895F999FECF92BD81BDF89A992780B57C
:104430000895A8E1B0E042E050E00C943922262F24
:10444000F999FECF92BD81BDF89A019700B402168A
:1044500039F01FBA20BD0FB6F894FA9AF99A0FBE38
:1044600008950196272F0E9420220C941F22DC0120
:10447000CB01FC01F999FECF06C0F2BDE1BDF89A6F
:10448000319600B40D9241505040B8F70895F89419
:02449000FFCF5C
:10449200CB012808140A321EC9195B1A361A001AEF
:1044A200CC1901F6F5F43736353433323130909188
:1044B2009293404D3639A20755071F07E606790643
:0644C2009206AB06C406E1
:00000001FF
